:020000040800F2
:10000000401B002011020008993B00084131000804
:10001000F537000873030008D14D00080000000008
:10002000000000000000000000000000F141000896
:10003000A506000800000000AB3B0008F3410008E3
:100040002B0200082B0200082B0200082B020008DC
:100050002B0200082B0200082B0200082B020008CC
:100060002B0200082B0200082B0200087D05000867
:100070008905000895050008A1050008AD050008E0
:10008000B9050008C50500082B0200082B0200086E
:100090002B0200082B0200082B0200082B0200088C
:1000A0002B0200082B0200082B0200082B0200087C
:1000B000AD420008B94200082B0200082B020008DC
:1000C0002B0200082B0200082B0200082B0200085C
:1000D0002B020008A14D0008AD4D0008B94D0008E5
:1000E0002B0200082B0200082B0200082B0200083C
:1000F0002B0200082B0200082B0200082B0200082C
:100100002B0200082B0200082B0200082B0200081B
:10011000014400082B0200082B0200082B020008F3
:100120002B020008D1050008DD0500082B0200089D
:100130002B0200082B0200082B0200082B020008EB
:100140002B0200082B0200082B0200082B020008DB
:100150002B020008E9050008F5050008C54D000858
:100160002B0200082B0200082B0200082B020008BB
:100170002B0200082B0200082B02000800000000E0
:100180002B0200082B0200082B0200080D44000877
:100190002B0200082B0200082B0200082B0200088B
:1001A0002B0200082B0200082B0200082B0200087B
:1001B0002B0200082B0200082B0200082B0200086B
:1001C0002B0200082B020008000000002B02000890
:1001D0002B0200082B0200082B0200082B0200084B
:1001E0002B0200082B0200082B0200082B0200083B
:1001F0002B0200082B020008DFF810D000F07CF87A
:100200000048004765590008AFF30080401B0020FC
:100210000648804706480047FEE7FEE7FEE7FEE7A0
:10022000FEE7FEE7FEE7FEE7FEE7FEE79D42000889
:10023000F90100082DE9F05F0546002092469B4633
:1002400088460646814640241BE0284641464746EC
:10025000224600F041F853465A46C01A914110D345
:1002600011461846224600F028F82D1A67EB0108BF
:100270004F4622460120002100F01FF817EB00092D
:100280004E41201EA4F10104DFDC484631462A46D7
:100290004346BDE8F09FD2B201E000F8012B491EB1
:1002A000FBD270470022F6E710B513460A46044613
:1002B0001946FFF7F0FF204610BD202A04DB203A44
:1002C00000FA02F1002070479140C2F1200320FAA9
:1002D00003F3194390407047202A04DB203A21FAA7
:1002E00002F00021704721FA02F3D040C2F120024F
:1002F0009140084319467047064C074D06E0E068F8
:1003000040F0010394E8070098471034AC42F6D35C
:10031000FFF776FF947B0008B47B000870B58C185B
:1003200010F8015B15F0070301D110F8013B2A1109
:1003300006D110F8012B03E010F8016B01F8016BF6
:100340005B1EF9D12B0705D40023521E0DD401F8F2
:10035000013BFAE710F8013BCB1A921C03E013F8BB
:10036000015B01F8015B521EF9D5A142D8D30020F0
:1003700070BDFEE702483C214172817203F090BDDE
:1003800055000020024800214172817203F088BDAF
:10039000550000202DE9F8434FF410670E4622491E
:1003A0000025062280463846009504F03FFD1E4C8D
:1003B000207894F801C0A178E37840EA0C00227913
:1003C000194363790843104318430CD12570082062
:1003D0006070DC21A1700622E57021462571384647
:1003E000657104F08DFD104F104B403F87F802807F
:1003F000FE63E07821790344627948400B44D118C8
:100400005040084469460422B8634FF4706004F019
:1004100077FD04226946900104F072FD06F016F99A
:100420003D70BDE8F88300002001002078563412AA
:100430002DE9F041474C2078062822D0A1784FF4CE
:10044000427000EB411004F0C5FC222805D0A078D2
:1004500000234422022106F013FD012505F0AAFB2A
:10046000C2B23C4894F900300026C01D4FF003088A
:100470000127011F052B2FD2DFE803F0060D1C30EA
:100480004A000520BDE8F081067046708670C6708F
:1004900006F0FEF95BE0022A1BD1E16B0A7C0270D8
:1004A0004A7C42708A7C8270C97CC17006F0DEFA98
:1004B00002202BE0052A0AD104F0CEFF08B1606AC1
:1004C0003DE006F0C3F8E06A8047267004E0062AA3
:1004D0003BD004F0F5FF05462846D3E7A269042582
:1004E000531CF9D0E369B3EB520FF5D902780A70C7
:1004F00042784A7082788A70C078C870A06B401CBD
:10050000A06306F0B3FA06F0A1F804202070E3E738
:10051000052A4FF00405DAD166700A7803789A420A
:100520000BD14A7843789A4207D18A7883789A42E5
:1005300003D1C978C078814202D0A06A03258047E0
:1005400006F084F884F80080C6E706F07FF827708C
:10055000C2E70000E000002010B5034CA07804F0D2
:10056000E7FF0620207010BDE00000200248C169AE
:10057000491CC16170470000E0000020014800F004
:10058000EFB80000CC090020014800F0E9B80000F5
:10059000AC0B0020014800F0E3B800000C0900207B
:1005A000014800F0DDB800000C0C0020014800F00C
:1005B000D7B800006C090020014800F0D1B8000055
:1005C000EC0A0020014800F0CBB800004C0B0020E2
:1005D000014800F0C5B800006C0C0020014800F094
:1005E000BFB800002C0A0020014800F0B9B8000094
:1005F000CC0C0020014800F0B3B800008C0A0020A9
:1006000001681823CAB2103AB2FBF3F2054B6FF33C
:100610000901032A9B5CC36500D9091D8165084651
:1006200070470000567A000810B583694FF0C07417
:10063000826A0146002053B1B3F5005F15D072B154
:10064000012A0CD0022A0AD0032A09D104E01AB1E7
:10065000012A06D0022A03D1C96AC90100D50120A6
:1006600010BDC96AA142FAD010BD002AF7D0012AF4
:10067000F2D0022AF3D0032AF3D010BD30B50468BB
:10068000256825F480252560046863608368402B15
:10069000036803D099600068C26030BD9A6000684A
:1006A000C16030BD704772B6FEE72DE9F041876D3D
:1006B000044600F003FB064694F8350000250228A6
:1006C00006D080206065012084F83450BDE8F081B8
:1006D0002068016821F0160101602068416921F05D
:1006E00080014161206C08B9A06C20B120680168CC
:1006F00021F0080101602068016821F0010101601A
:100700000CE000F0DBFA801B052807D92021616589
:10071000032084F8350084F83450D7E72068006857
:10072000C007EED194F85C203F2001219040B860D2
:1007300084F83510002084F83450C7E790F835105D
:10074000022903D08021416501207047052180F8EE
:1007500035100068016821F0010101600020704738
:100760002DE9F84304464FF00009644B0820CDF80A
:1007700000904FF41652A56D94F85C101B682E681B
:10078000B3FBF2F700FA01F131420FD021680A6899
:1007900052070BD50A6822F004020A6094F85C1034
:1007A0008840A860606D40F00100606594F85C10BE
:1007B0004FF0010808FA01F0304208D02168496979
:1007C000090604D5A860606D40F00200606594F8E9
:1007D0005C1004208840304208D0216809688907ED
:1007E00004D5A860606D40F00400606594F85C106A
:1007F00010208840304218D021680968090714D5B4
:10080000A86020680168490304D50068000308D582
:10081000A16C07E00168C90503D4016821F0080153
:100820000160216C09B12046884794F85C102020B3
:100830008840304231D021680968C9062DD5A860AA
:1008400094F8350005282068016806D0490347D58B
:10085000006800031DD4616C1CE021F016010160EA
:100860002068416921F080014161206C08B9A06CC9
:1008700020B12068016821F00801016094F85C3023
:100880003F229A40AA6084F8358084F83490216D24
:100890001FE0E16B09B120468847606D00282BD02E
:1008A000606DC00714D0052084F835002068016809
:1008B00021F0010101600098401C0090B84203D86B
:1008C00020680068C007F6D184F8358084F8349039
:1008D000E16C002910D001B02046BDE8F043084784
:1008E0000168C905D5D4036823F01003036084F8B8
:1008F000358084F83490CCE7BDE8F8839800002078
:100900002DE9F047044600F0D9F906465CB1002510
:10091000022084F8350084F834502068016821F002
:10092000010101600DE00120BDE8F08700F0C6F98B
:10093000801B052805D920216165032084F8350036
:10094000F2E720680068C007F0D1D4E90010D4E9CC
:100950000232D4E9046C1843D4F8188004F11C0363
:100960008946324309681043C8CB1D4A40EA0C004F
:1009700040EA0800114040EA030040EA0600042F64
:1009800040EA010003D1D4E90B1211430843C9F82E
:1009900000002068666A4069042E20F0070046EADD
:1009A00000060CD1D4E90A01064341B12046FFF705
:1009B0003BFE20B14020606584F83550B3E72068E5
:1009C00046612046FFF71CFE94F85C303F2101226F
:1009D00099408160656584F835200020A4E7000017
:1009E0003F8010E02DE9F041044690F834000025E6
:1009F0000128A66D0ED094F835C00127002084F898
:100A00003470BCF1010F07D0022584F83400284669
:100A1000BDE8F0810220FBE7022784F835706065AD
:100A20002046FFF72BFE94F85C103F208840B06012
:100A30002068016841F0160101602068416941F0B9
:100A400080014161206C20B12068016841F00801FB
:100A500001602068016841F001010160D7E70000F2
:100A60002DE9F84FDFF80CB2012403254FF00F0AEF
:100A700000220BF1040E00BF0B6804FA02F63340AB
:100A8000B34278D10F7907F00307012F01D0022F6D
:100A90001AD187684FEA4209D1F80CC005FA09F863
:100AA00027EA08070CFA09FC4CEA070CC0F808C052
:100AB000476891F804C0B743CCF3001C0CFA02FC61
:100AC0004CEA070CC0F804C00E79F643B6070BD009
:100AD000C6684FEA420C8F6805FA0CF826EA080649
:100AE00007FA0CF73743C7600E7906F00306022EAB
:100AF00012D1D6084FEA427800EB860600960F69BD
:100B0000D6F820904FEAD8660AFA06FCB74029EAE0
:100B10000C063743009E37620F7906684FEA420C95
:100B200007F0030705FA0CF807FA0CF726EA08069F
:100B3000374307604E6816F4403F1CD04E4E37686E
:100B400047F480473760366822F00308970706F4B9
:100B500080460096494E3F0F4644B146D6F8086895
:100B6000DFF81C810AFA07FC404526EA0C0603D18F
:100B70004FF0000C41E076E0DFF808C1604502D19B
:100B80004FF0010C39E0DFF800C1604502D14FF0B1
:100B9000020C32E0DFF8F4C0604502D14FF0030CE4
:100BA0002BE0DFF8ECC0604502D14FF0040C24E0EC
:100BB000DFF8E0C0604502D14FF0050C1DE0DFF822
:100BC000D8C0604502D14FF0060C16E0DFF8CCC06B
:100BD000604502D14FF0070C0FE0DFF8C4C060455C
:100BE00002D14FF0080C08E0DFF8B8C0604502D130
:100BF0004FF0090C01E04FF00A0C0CFA07FC4CEA2C
:100C0000060CC9F808C84F68DBF80060FF0226EA46
:100C1000030600D51E437746CBF80060D1F804C028
:100C2000DEF800605FEA8C2C26EA030600D51E433E
:100C3000DFF840C03E60ACF1040C4F68DCF80060A7
:100C4000BF0326EA030600D51E430A4FCCF8006016
:100C5000083FD1F804C03E685FEACC3C26EA0306B0
:100C600000D51E433E60521C102AFFF405AFBDE8BC
:100C7000F88F0000083C0140443802400030014039
:100C8000000002400004024000080240000C024044
:100C9000001002400014024000180240001C0240F4
:100CA00000200240002402400069084000D00120DA
:100CB00070470AB1816170470904FBE70148806809
:100CC000704700008C0000200248816802781144BF
:100CD000816070478C000020032010B500F06EF892
:100CE0000F2000F005F800F023F8002010BD0000F0
:100CF00070B50D4D04464FF47A700C4A297812688D
:100D0000B0FBF1F0B2FBF0F001F08CF948B9102C17
:100D100007D200222146501E00F030F800206C60FF
:100D200070BD012070BD00008C00002098000020E4
:100D30000A4808B5016841F080510160006800F080
:100D4000805000900548001D016841F48041016019
:100D5000006800F48040009008BD00004038024068
:100D6000002809DB410900F01F028900012001F180
:100D7000E0219040C1F80001704700000E4BF0B434
:100D80001B680D46C3F30223C3F10706042E00D9E6
:100D90000426191D072901D2002300E0DB1E0124CF
:100DA00004FA06F19C40491E2940641E99401440F3
:100DB0002143F0BC04F004B90CED00E0064900F05A
:100DC000070210B54FF6FF040868044B204040EAC4
:100DD00002201843086010BD0CED00E00000FA0589
:100DE0001848F8B5016841F0805101600068164C60
:100DF00000F080500090206840F480302060FFF7C1
:100E00005DFF4FF47A76054605E000BFFFF756FF19
:100E1000401BB0420FD86068C003F7D5206840F48B
:100E200000302060FFF74AFF054606E0FFF746FF67
:100E3000401BB04201D90320F8BD60688003F5D59E
:100E40000020F8BD403802400070004002480168B0
:100E500041F4807101607047007000402DE9F84F47
:100E600004460078DFF824944FF000063746C007A8
:100E70000ED0D9F8001021F40001C9F80010D9F8FB
:100E80000010626B1143C9F80010606B00B90126B5
:100E9000FE4D2068843500030ED5E16B286820F4F0
:100EA000401008432860E06BB0F5801F01D010B1FE
:100EB00002E0012600E0012720684FF4800BC00209
:100EC0000CD5216C286820F4400008432860206C71
:100ED000584501D1012601E000B901272068C10170
:100EE00000D50126800666D5E8483830016841F013
:100EF000805101600068DFF898A300F080500090F6
:100F0000DAF8001041F48071CAF80010FFF7D6FE3D
:100F1000804605E0FFF7D2FEA0EB080064287DD8EC
:100F2000DAF80000C005F5D5DFF8608308F168083D
:100F3000D8F8000010F440702AD0218E01F44071DE
:100F4000814225D0D8F80010D8F8002021F4407153
:100F500042F48032C8F80020D8F8002022F4803211
:100F6000C8F80020C8F80010D8F80000C0070FD05B
:100F7000FFF7A4FE824607E0FFF7A0FEA0EB0A0100
:100F800041F288308142CAD8D8F800008007F3D5F2
:100F9000206BC0F3012103297ED0D9F8001021F481
:100FA000F811C9F80010228ED8F80010C2F30B0215
:100FB0001143C8F800102078C00607D5286820F033
:100FC000807028602868A16B084328602188AF489A
:100FD0008830490405D5626E016821F4403111431F
:100FE00001602188090405D5A26E016821F4402121
:100FF000114301602168C90305D5E26E016821F43F
:101000004011114301602168890305D5226F0168F1
:1010100021F4400111430160217800E034E14906E8
:1010200005D5626C016821F003011143016021784C
:10103000090605D5A26C016821F00C01114301607D
:101040002188C90505D5E26C016821F03001114302
:1010500001602188890505D5226D016821F0C00154
:10106000114301602188490505D5626D016821F4AD
:101070004071114301602188090505D5A26D016801
:1010800021F44061114301602188C90407D5E26D54
:10109000016821F4405100E068E0114301602188BB
:1010A000890405D5226E016821F440411143016095
:1010B0002168490205D5A26F016821F080611143C2
:1010C000016021684FF0006A890209D5E26F01686A
:1010D00021F0006111430160E16F514500D101270A
:1010E00021680A0700D50127490305D5626F016809
:1010F00021F04071114301602168090206D5D4F83E
:101100008020016821F0805111430160216849016C
:1011100006D5D4F88420016821F000511143016004
:101120002068000106D5D4F88810286820F00070E7
:10113000084328602068C00006D5D4F88C102868C1
:1011400020F0806008432860DFF84891012E02D02B
:10115000206880017ED5D9F800004E4620F08060DE
:10116000C9F80000FFF7AAFD80460FE04A4AD9F807
:101170000030104023F4F8120243C9F8002012E7AF
:10118000FFF79CFDA0EB080064287DD830680001C3
:10119000F6D421783D487C30C90712D0616B81B903
:1011A000237A62680168D0F800C09201C1F301415E
:1011B00042EA0142CCF3036142EA016141EA037170
:1011C000016021680A0303D5E26BB2F5801F04D0E9
:1011D000C9021AD5216C594517D16368016894F882
:1011E0000CC002689B01C1F3014143EA0141C2F313
:1011F000027241EA0C6141EA027101602968626A87
:1012000021F01F01521E114329602168C90110D528
:10121000238A62680168D0F800C09201C1F30361BB
:1012200042EA034242EA0162CCF3027142EA0171EE
:101230000160216889010CD56168228A237B94F8BA
:1012400008C0890141EA024141EA036141EA0C71A7
:10125000016000E011E03168B04641F0806131602A
:10126000FFF72CFD064604E0FFF728FD801B6428ED
:101270000AD8D8F800000001F6D5E7B3D9F8000085
:101280004E4620F0805009E07BE000000838024024
:101290000070004000380240FFFCFF0FC9F800005A
:1012A000FFF70CFD074604E0FFF708FDC01B6428AC
:1012B00067D83068C0438000F6D5216835480A03F6
:1012C00001D5E26B1AB1C9021DD5216CD9B9636988
:1012D0000168277E02689B01C1F3014143EA014393
:1012E000C2F3027143EA076242EA017101602968B0
:1012F0006FF0FF0300E04BE0A26A21F4F85103EB2A
:101300000222114329602168890212D5E16F5145FB
:101310000FD1238C6269016807689201C1F30361F0
:1013200042EA034242EA0162C7F3027142EA0171F2
:1013300001602178090716D561690268D0F800C0FC
:101340008B01277FC2F30362CCF3014143EA0141E1
:1013500041EA026141EA077101602868E16A20F40C
:10136000403008432860306840F080503060FFF71C
:10137000A5FC044608E000BFFFF7A0FC001B6428A2
:1013800002D90320BDE8F88F3068C0438000F3D451
:101390000020F7E7883802402DE9F04705000F46A6
:1013A00063D0444E306800F00F00B84209D2306874
:1013B00020F00F0038433060306800F00F00B84272
:1013C00053D128683C4C810712D5400703D52068CB
:1013D00040F4E05020602878000703D5206840F4EE
:1013E00060402060A968206820F0F0000843206079
:1013F0002878C0072AD0304968680839012810D0F9
:101400000968022810D0890700292EDA216821F006
:10141000030101432160FFF751FC804641F2883906
:101420000DE009688903EFE78901EDE7FFF746FC66
:10143000A0EB0801494502D90320BDE8F0876868A0
:10144000216801F00C01B1EB800FEFD1306800F0A2
:101450000F00B8420BD9306820F00F0038433060DD
:10146000306800F00F00B84201D00120E5E728788D
:10147000400705D5E968206820F4E0500843206063
:101480002878000706D52869216821F4604141EADF
:10149000C000206000F038F82168084AC1F3031149
:1014A000515CC8400649086006480068FFF720FC08
:1014B0000020C2E7003C0240083802405E7A000883
:1014C0009800002090000020044905480968006841
:1014D000044AC1F38221515CC84070470838024079
:1014E000980000206E7A00080449054809680068E1
:1014F000044AC1F34231515CC84070470838024089
:10150000980000206E7A0008154910B51548096842
:1015100011F00C0213D01449042A0FD0082A0ED15E
:101520000F4C241F2268236802F03F025B0207D59C
:101530002068C0F38810A0FB010106E0084610BD3A
:101540002168C1F38811A1FB00010023FEF772FEA0
:101550002168C1F30141491C4900B0FBF1F010BD05
:10156000083802400024F40040787D012DE9F84F4E
:1015700004004FF000076ED02078DFF87CA3AAF1BA
:101580000408C007A8F104054CD0DAF80010504652
:10159000C1F38101012908D00068C0F3810002284D
:1015A0000AD1D8F80000400206D52868800339D552
:1015B00060680028DFD035E06068B0F5803F0BD070
:1015C00010B1B0F5A02F11D0286820F48030286029
:1015D000286820F4802002E0286840F480302860E9
:1015E000606890B1FFF76AFB06460AE0286840F49D
:1015F00080202860F0E700BFFFF760FB801B6428B5
:1016000072D828688003F7D50CE0FFF757FB064631
:1016100005E000BFFFF752FB801B6428F0D8286864
:101620008003F7D42078800742D5DAF800105046BE
:1016300011F00C0F08D00068C0F3810002280BD114
:10164000D8F80000400207D42868800718D5E06861
:10165000012800D114E04AE1E0680028286817D08A
:1016600040F001002860FFF729FB064605E000BFB7
:10167000FFF724FB801B0228C2D828688007F7D513
:101680002069296821F0F80141EAC00028600FE0D4
:1016900020F001002860FFF711FB064605E000BFBF
:1016A000FFF70CFB801B02281ED828688007F7D4A0
:1016B0002078000729D5904861696C30002981465F
:1016C000016812D041F001010160FFF7F7FA064608
:1016D00005E000BFFFF7F2FA801B022804D8D9F812
:1016E00000008007F6D510E089E021F001010160DB
:1016F000FFF7E4FA064604E0FFF7E0FA801B022851
:101700007DD8D9F800008007F6D4207840076BD543
:10171000DFF8E49109F13809D9F80000C0000BD4D2
:10172000D9F8001041F08051C9F80010D9F8000034
:10173000012700F08050009070480168C90512D45C
:101740000168834641F480710160FFF7B7FA0646ED
:1017500005E000BFFFF7B2FA801B64284FD8DBF822
:101760000000C005F6D5644EA068683601280AD08E
:1017700008B1052811D0306820F0010030603068D1
:1017800020F0040002E0306840F001003060A06802
:10179000A0B1FFF793FA83460CE0306840F00400F4
:1017A0003060F0E7FFF78AFAA0EB0B0141F28830D6
:1017B000814268D830688007F4D50EE0FFF77EFAE2
:1017C000834607E0FFF77AFAA0EB0B0141F288307D
:1017D000814258D830688007F4D42FB1D9F800106E
:1017E00021F08051C9F80010A069E0B3DAF80010C8
:1017F000C1F3810102294DD00228286800E042E0AF
:1018000020F08070286003D0FFF758FA04463DE0CE
:10181000FFF754FA064604E0FFF750FA801B02284F
:1018200031D828688001F7D4D4E90921DFF8D0C085
:10183000D4E9070694F830304F0894F82C10304360
:101840000CEB074444EA8212104340EA016040EA8C
:101850000370C8F80000286840F080702860FFF727
:101860002DFA044605E044E0FFF728FA001B0228A1
:1018700009D828688001F7D53BE000BFFFF71EFAC2
:10188000001B022802D90320BDE8F88F28688001D8
:10189000F4D42EE00128D8F8000028D0E16900F443
:1018A00080028A4223D1216A00F03F028A421ED17F
:1018B000626A47F6C0710140B1EB821F17D1A16A7D
:1018C0004FF0FF3200F4403302EB5101B3EB014F14
:1018D0000DD194F82C1000F07062B2EB016F06D1BC
:1018E00094F8301000F0E040B0EB017F01D001200F
:1018F000CAE70020C8E70000083802400070004036
:101900000000FFFF2DE9F04104000AD0606A0025C5
:1019100050B12561C4F8145094F85D00A56248B137
:101920000DE00120BDE8F0816068B0F5827FF3D062
:10193000E561F1E7204684F85C5000F05DF8022094
:1019400084F85D004FF4E0622068016821F04001F6
:101950000160E068904201D9002101E04FF480511C
:10196000B0F5706F02D0904200D0A5622289A088A5
:10197000237C02F4044C277D00F4827003F00206FD
:10198000228B40EA0C00237F304394F8206007F05C
:1019900001073843278D02F40072104303F0380327
:1019A0001843236806F08002104307F400563043C2
:1019B0001860A069042394F8242001F4805194F85D
:1019C000346003EA1040A78902F01002104306F0C9
:1019D00008031843236807F47062104308435860F3
:1019E0002068C16921F40062C2610121256684F882
:1019F0005D10002096E70000F0B587B00446142182
:101A00006846FEF74FFC2249206888423DD12148B4
:101A1000016841F480410160006800F48040059055
:101A20001C481038016841F004010160016801F0B0
:101A300004010591016841F001010160016801F0B4
:101A400001010591016841F4807101600068022480
:101A50000527009400F48070694601AA0025CDE9AD
:101A6000047003260C4882E87000FEF7F9FFE002DC
:101A700069468DE8F1000948FEF7F2FF0420694647
:101A80008DE8F1000648FEF7EBFF07B0F0BD00005F
:101A90000038004040380240000802400000024088
:101AA000002002402DE9F84F044690F85D001D46E5
:101AB00016460F4601283FD1002F75D0002E73D057
:101AC00060684FF0040BB0F5827F01D1A06848B385
:101AD000FFF7F4F8824694F85C0001282CD0E36804
:101AE0004FF0010984F85C904FF0000884F85DB075
:101AF000C4F860804FF4E061C4F838808B422764FA
:101B0000A4F83C80C4F84C80C4F85080A4F8446029
:101B1000A4F84660A4F83E80206842680ED922F4FA
:101B200080520DE084F85DB02046009313460A46CB
:101B300000F03FF9BDE8F88F0220FBE742F4805245
:101B40004260A068B0F5004F09D12068026822F019
:101B5000400202602068026822F48042026020682D
:101B60000268520603D4026842F040020260E06854
:101B700088421BD93CE020688168C9070BD0007BF4
:101B8000216C0870206C401C2064B4F84600401E94
:101B9000A4F846000AE0FFF791F8A0EB0A00A8427B
:101BA00003D3681C02D006E035E025B1B4F8460046
:101BB0000028E0D120E084F85D9030E02068816862
:101BC000C9070BD0C068216C0880206C801C206481
:101BD000B4F84600401EA4F8460009E0FFF76EF88E
:101BE000A0EB0A00A84202D3681C01D015E0A5B101
:101BF000B4F846000028E1D152462946204602F0BA
:101C000093F908B12020206684F85D90206E84F856
:101C10005C8000288ED001208CE784F85D90032042
:101C200084F85C8086E72DE9F84F984616468A4688
:101C30000446FFF743F8814694F85D00012820D15F
:101C4000BAF1000F6ED0002E6CD094F85C00012821
:101C500017D0A1680025012784F85C70032084F860
:101C60005D002566B1F5004FC4F838A02564A4F8DE
:101C700044502565E564A687E687A4F8465003D05E
:101C80000CE00220BDE8F88F2068016821F04001D7
:101C900001602068016841F48041016020680168AA
:101CA000490603D4016841F040010160E068B0F5E5
:101CB000E06F606826D908B1012E1FD1A06B2168A2
:101CC0000088C86006E020688168890709D5A16B93
:101CD0000988C160A06B801CA063E08F401EE08774
:101CE0000CE0FEF7EBFFA0EB0901414503D3B8F18F
:101CF000FF3F03D04AE0B8F1000F47D0E08F002843
:101D0000E1D138E008B1012E32D1E08F21680128FD
:101D1000A06B02D90088C8600FE00078087314E057
:101D2000E08725E043E020688168890713D5E18FCB
:101D30000129A16B07D90988C160A06B801CA06331
:101D4000E08F801EECE709780173A06B401CA06354
:101D5000E08F401EE4E7FEF7B1FFA0EB090141452B
:101D600003D3B8F1FF3F03D010E0B8F1000F0DD05E
:101D7000E08F0028D7D14A464146204602F02AF992
:101D800008B120202066A06830B109E084F85D70B9
:101D9000032084F85C5075E72068C1688068009073
:101DA00084F85D70206E84F85C500028F3D0012028
:101DB00068E72DE9FF5F1D46934604464FF0010991
:101DC0000E9EFEF77BFF074694F85D0061680128D0
:101DD00006D0B1F5827F39D1A168B1BB042835D1D5
:101DE000019800287CD0BBF1000FFBD0002DF9D06A
:101DF00094F85C00012829D094F85D104FF0010A96
:101E000084F85CA0042902D0052084F85D00A4F8C1
:101E100044504FF00008A587E168C4F840B0019A2B
:101E2000A2634FF4E0629142C4F86080C4F84C8031
:101E3000C4F85080A4F84650E58701D8012D09D98F
:101E40002068416821F4805108E0FFE7022004B0D7
:101E5000BDE8F09F2068416841F4805141602068EE
:101E60000168490603D4016841F040010160E0685F
:101E70009042606846D908B1012D3BD1A06B216822
:101E80000088C860A06B801CA063E08F401EE087C4
:101E900030E02068816889070FD5E18F69B1B9F119
:101EA000010F0AD1A26B4FF000091188C160A06B2D
:101EB000801CA063E08F401EE08720688168C9070E
:101EC00011D0B4F8461071B1C0684FF00109226C0E
:101ED0001080206C801C2064B4F84600401E00E096
:101EE0009CE0A4F84600FEF7E9FEC01BB04201D317
:101EF000701C73D1E08F0028CBD1B4F846000028C5
:101F0000C7D174E008B1012D6AD1E08F21680128A2
:101F1000A06B07D90088C860A06B801CA063E08F0D
:101F2000801E06E000780873A06B401CA063E08F61
:101F3000401EE08754E02068816889071AD5E18F48
:101F4000C1B1B9F1010F15D1E18F0129A16B07D9F9
:101F50000988C160A06B801CA063E08F801E06E032
:101F600009780173A06B401CA063E08F401EE087DE
:101F70004FF0000920688168C90728D0B4F84610DE
:101F800029B3B4F84610012914D9C068216C08801F
:101F9000206C801C2064B4F84600801EA4F8460023
:101FA000B4F84600012810D82068416841F48051F7
:101FB00041600AE0007B216C0870206C401C2064AA
:101FC000B4F84600401EA4F846004FF00109FEF7A1
:101FD00075FEC01BB04202D3701C01D012E08EB15E
:101FE000E08F0028A7D1B4F846000028A3D13A46D4
:101FF0003146204601F0EEFF50B12021216684F8E1
:102000005C800BE084F85DA0032084F85C801EE710
:1020100084F85DA0216E84F85C8009B1012016E788
:10202000002014E7401EB0F1807F10B501D30120DD
:1020300010BD4FF0E02460610F21601702F0C0FF77
:102040000020A0610721216110BD704770477047D3
:10205000F0B590F83C20012A3BD01F4E012480F8B7
:102060003C40022280F83D2002681C4D5368B24279
:10207000D2F808C001D0AA4203D14F6823F47003FC
:102080003B430F6823F070031F4357600268B2425E
:1020900013D0B2F1804F10D0114B9A420DD0114B9A
:1020A0009A420AD0104B9A4207D0AA4205D00F4B51
:1020B0009A4202D00E4B9A4204D189682CF08003D8
:1020C00019439160002180F83D4080F83C1008469B
:1020D000F0BD0220F0BD00000000014000040140FE
:1020E0000004004000080040000C00400040014097
:1020F0000018004010B5040003D094F83D0010B162
:1021000007E0012010BD002084F83C00204600F0CC
:1021100023F8022084F83D002068211D02F0D2F847
:10212000012084F8480084F83E0084F83F0084F8D9
:10213000400084F8410084F8420084F8430084F8A9
:10214000440084F8450084F8460084F8470084F889
:102150003D00002010BD000008B501681448B1F131
:10216000804F14D0134A914220D1016841F00201FE
:10217000016000680022114600F0020000901D205E
:10218000FEF7FCFD1D20BDE80840FEF7E9BD016833
:1021900041F00101016000680022114600F00100D9
:1021A00000901C20FEF7EAFD1C20ECE708BD0000B3
:1021B000403802400004004090F83D10012901D051
:1021C00001207047174A022180F83D100168CB6852
:1021D00043F00103CB600068904214D0B0F1804F0F
:1021E00011D0114988420ED0104988420BD01049B5
:1021F000884208D00F49884205D00F49884202D052
:102200000E49884207D181680D4A1140062906D03F
:10221000B1F5803F03D0016841F001010160002069
:10222000704700000000014000040040000800402A
:10223000000C004000040140004001400018004034
:102240000700010070B5044690F83C000025012805
:1022500017D0334B012684F83C60022084F83D00FF
:1022600022689068184020F47F40906008685028E9
:1022700038D00DDC20284FD005DC90B3102811D1C8
:102280004AE0022070BD302846D040280AD13BE009
:1022900060282FD070280DD0B0F5805F03D0B0F546
:1022A000005F12D0012584F83D60002084F83C00D6
:1022B000284670BD4A682068D1E9021302F06CF824
:1022C0002068816841F0770109E04A682068D1E917
:1022D000021302F061F82068816841F48041816056
:1022E000E1E719E0CA684968206802F066F82068EA
:1022F000502106E0CA684968206802F06FF820683B
:10230000602102F052F8CEE7CA684968206802F0FE
:1023100054F820684021F4E7226801461046F0E7AF
:1023200088FFFEFF70472DE9F04104460068002752
:10233000C6680569A90713D5B10711D5FA1E026150
:1023400001212177206880698007204602D0FFF7AD
:10235000E9FF04E000F08BF8204600F089F82777C9
:10236000680716D5700714D5226802206FF00401A3
:10237000116120772068806910F4407F204602D0E8
:10238000FFF7D0FF04E000F072F8204600F070F88C
:102390002777280715D5300713D5226804206FF05A
:1023A0000801116120772068C0698007204602D0AB
:1023B000FFF7B8FF04E000F05AF8204600F058F8A4
:1023C0002777E80616D5F00614D5226808206FF0A6
:1023D0001001116120772068C06910F4407F204609
:1023E00002D0FFF79FFF04E000F041F8204600F024
:1023F0003FF82777E80708D0F00706D021686FF08C
:1024000001000861204600F035F8280601D4A80430
:1024100008D5300606D521686FF4025008612046C1
:10242000FFF714FEE80508D5300606D521686FF4DD
:10243000807008612046FFF708FE680608D5700620
:1024400006D521686FF040000861204600F0B4F81E
:10245000A8060AD5B00608D521686FF020000861EB
:102460002046BDE8F041FFF7F2BDBDE8F0817047BE
:102470007047000070B50646444886427DD101F0A1
:1024800007FC434C0025607830B1012850D0022869
:1024900057D0042871D167E0207800F00700401C75
:1024A00020702078012809D1A07818B1012060702F
:1024B000A57003E03748082101F078FB2078022856
:1024C00003D13548082101F071FB2078032803D19E
:1024D0003248082101F06AFB2078042803D13048F3
:1024E000082101F063FB2078052803D12D4808213D
:1024F00001F05CFB2078062803D12B48082101F06D
:1025000055FB2078072803D12848082101F04EFB0D
:102510002078082831D1E0784FF0080120B1244814
:1025200001F044FBE57028E0224801F03FFB24E085
:1025300017480821103001F039FBFEF7BFFB0221DC
:102540000FE0FEF7BBFB626840F6B831801A8842A4
:1025500013D30F480821083001F028FBFEF7AEFB2B
:1025600004216060617008E0FEF7A8FB626841F238
:102570008831801A884200D365703068B0F1804F8E
:1025800003D1BDE8704004F0D7BE70BD5C050020EB
:1025900070000020150000200D0000201D0000200C
:1025A000250000202D000020350000203D000020E7
:1025B0004D00002045000020704710B50446D0F8BB
:1025C0008000202801D0022010BD61B15AB1012342
:1025D000236600206066204602F09EFA0028F3D1B0
:1025E000216E012901D0012010BD22681021116245
:1025F000226852E8001F41F0100142E80013002B4E
:10260000F6D110BD70B50446D0F880000025202812
:1026100001D0022070BD69B162B1012323660020A0
:102620006066204602F0C8FA206E012804D0012519
:10263000284670BD012070BD216810200862216805
:1026400051E8000F40F0100041E80002002AF6D1E6
:10265000EEE7000010B50068204A904205D12148FD
:102660000A461F4900F03CFD16E01F4A904203D184
:102670001B4803F0FFFB0FE01C4A904203D11C48AB
:1026800003F07AFC08E01B4A904205D01A4A9042B7
:1026900002D11A4803F068FB194924221148FFF7B8
:1026A000B1FF0F4950221748FFF7ACFF0D485022E9
:1026B0000F498830FFF7A6FF124832220F498838A9
:1026C000FFF77BFF0D4932220F48FFF79BFF0F48B2
:1026D0000068016821F00801016010BD0010014090
:1026E000C0010020EC06002000140140004400401E
:1026F00010020020004C0040004800405C01002017
:102700006002002084080020DC050020AC0B0020C3
:10271000704770472DE9F04102680025044640F6F5
:102720000F070226D06911689368384205D18706E1
:102730007ED58F067CD5A16E33E1DFF894C203F01D
:10274000010701EA0C0C57EA0C0C71D05FEAC07C5F
:102750000CD05FEAC15C09D54FF0010CC2F820C073
:10276000D4F8842042F00102C4F88420820709D5FD
:10277000DA0707D022681662D4F8842042F00402F7
:10278000C4F8842042070AD5DA0708D02368042257
:102790001A62D4F8842042F00202C4F884200207AE
:1027A0000CD501F020023A4308D0236808221A62AF
:1027B000D4F8842042F00802C4F8842002050BD526
:1027C0004A0109D523684FF400621A62D4F88420C4
:1027D00042F02002C4F88420D4F88420002A36D0A5
:1027E000800605D5880603D5A16E09B12046884725
:1027F0002168D4F884008968490602D410F0280FB3
:1028000027D0204601F07FFF2068806840061BD556
:102810002068083050E8001F21F0400140E8001215
:10282000002AF5D1606F78B16A490165606F00E0F8
:1028300015E0FDF783FF002809D0606F016D00E00F
:102840002046BDE8F04108472046FFF762FFBDE89B
:10285000F0812046FFF75DFFC4F88450F7E7D4F815
:1028600060C02027BCF1010F7ED15FEAC06C7BD530
:102870005FEAC16C78D5102010622068806840063D
:102880004FD5626FFB00106840680004000C3CD01C
:10289000B4F85810814238D9A4F85A00D069984247
:1028A0002BD0206850E8001F21F4807140E800120E
:1028B000002AF6D12068083050E8001F21F00101FD
:1028C00040E80012002AF5D12068083050E8001FC7
:1028D00021F0400140E80012002AF5D1C4F88070D0
:1028E0002566216851E8000F20F0100041E8000241
:1028F000002AF6D1606FFDF7D8FE6666B4F858007E
:10290000B4F85A10401A81B207E0B4F85810814266
:102910009DD1D06998429AD166662046FFF79AFE0B
:1029200095E7B4F85800B4F85A10B4F85A20401A91
:1029300081B2002A8BD0002989D0226852E8000F8A
:1029400020F4907042E80003002BF6D1206800F1DB
:10295000080050E8002F22F0010240E80023002B7D
:10296000F4D1C4F8807000E00BE02566A56620680D
:1029700050E8002F22F0100240E80023002BF6D18F
:10298000CAE7C60208D55B0206D54FF48010106274
:102990002046FFF7BDFE5AE7020606D50A0604D513
:1029A000E16E00297FF44CAF51E74006B8D54806E8
:1029B000B6D52046026852E8001F21F0400142E8E7
:1029C0000013002BF6D1C767C56600F0B7FB3EE7E2
:1029D000200100048745000810B5040002D0E06F14
:1029E00010B107E0012010BD002084F878002046D7
:1029F00000F026F82420E0672068016821F001013A
:102A00000160606A10B1204601F006FD204601F029
:102A10006BFF0128E7D02068416821F490414160B4
:102A20002068816821F02A0181602068016841F0F6
:102A3000010101602046BDE8104001F051BD0000D9
:102A40002DE9F04FABB00446142124A8FDF72AFC71
:102A500090216846FDF726FCFF4E0327DFF8F8A318
:102A60004FF0006B103E4FF0020800214FF040097C
:102A7000FA4A20681515904264D141150091002052
:102A800014906846FEF7EAF908B1FDF70CFEDAF893
:102A9000001041F40021CAF80010DAF8000000F438
:102AA00000202990306840F0040030603068082130
:102AB000002600F004004FF44062CDE92667CDE91E
:102AC0002810E74824A9CDE92428FDF7C9FFE54FE0
:102AD000E54938463960C7E901B6C7E903657E6153
:102AE000BE61FE613E627E62FDF70AFF08B1FDF73E
:102AF000DAFDDFF87083676708F16008BC63404661
:102B0000D94BC8F808903033C0E90365C8F81460A1
:102B1000C8F81860C8F81C60C8F82060C8E9003B15
:102B2000C8F82460FDF7ECFE08B1FDF7BCFD0022FB
:102B3000C4F8708034201146C8F83840FEF71EF9FA
:102B400034204AE0C94A90424CD18B46CDF860B05F
:102B5000411468460091FEF781F908B1FDF7A3FD25
:102B6000DAF8001041F00041CAF80010DAF800006D
:102B700000F000402990306840F01000306030686C
:102B80000821CDE9247800F010005E46CDE926B793
:102B9000CDE92810B64824A9FDF762FFB14F4FF0E8
:102BA0002060B14AC037303AC7F80890C7E90365DA
:102BB0007E61BE61FE613E627E62C7E900203846EA
:102BC000FDF79EFE08B1FDF76EFD0022276753203A
:102BD0001146BC63FEF7D2F85320FEF7C1F82BB0C4
:102BE000BDE8F08FA34A904264D1CA468946684640
:102BF000CDF800A01191FEF731F908B1FDF753FDB2
:102C00009548001D016841F010010160006800F066
:102C100010002990306840F00100306030680721D2
:102C20004FF4C0624E4600F00100CDE92697CDE991
:102C30002810914824A9CDE92428FDF711FF8F4FD2
:102C40008F4938463960C7E901B6C7E903657E6137
:102C5000BE61FE613E627E62FDF752FE08B1FDF785
:102C600022FDDFF81882676708F16008BC63404600
:102C7000834BC8F808A07833C0E90365C8F814602E
:102C8000C8F81860C8F81C60C8F82060C8E9003BA4
:102C9000C8F82460FDF734FE08B1FDF704FD0022FA
:102CA000C4F8708025201146C8F83840FEF766F851
:102CB000252092E7734A90427AD100201290802119
:102CC00068460091FEF7CAF808B1FDF7ECFCDAF8A7
:102CD000001041F40031CAF80010DAF8000000F4E6
:102CE00000302990306840F001003060306800F01A
:102CF00001002990306840F0080030603068C2461A
:102D000026AA4FF0070800F0080029900820CDE916
:102D1000240A0026584882E8C00124A9FDF7A0FE35
:102D200020225948CDE9242A26AA24A982E8C001F4
:102D3000FDF796FEDFF844814B4A08F1C008404693
:102D40004832C8F80020C0E901B6C0E90365C8F8F8
:102D50001460C8F81860C8F81C60C8F82060C8F88B
:102D60002460FDF7CDFD08B1FDF79DFC474FC4F889
:102D70007480C8F8384038463B4AC7F80890C7E91D
:102D800003657E616032BE61FE613E627E62C7E9BC
:102D9000002BFDF7B5FD08B1FDF785FC0022276784
:102DA00026201146BC63FDF7E9FF262015E7FFE763
:102DB000374A90424FD18115009100201390684608
:102DC000FEF74CF808B1FDF76EFCDAF8001041F49C
:102DD0008021CAF80010DAF8000000F48020299061
:102DE000306840F00800306030680721002600F0AD
:102DF00008004FF44072CDE92667CDE9281022483B
:102E000024A9CDE92428FDF72BFE204F1649603771
:102E1000183938463960C7E901B6C7E903657E61EC
:102E2000BE61FE613E627E62FDF76AFD08B1FDF79C
:102E30003AFCDFF85880676708F1C008BC63404679
:102E4000094BC8F808901833C0E90365C8F8146046
:102E5000C8F818601EE035E040380240004C0040E1
:102E6000000802400C09002040600240007C004045
:102E70000010024000100140000002402C0A002017
:102E80004064024000440040000C02404C0B002013
:102E900000480040C8F81C60C8F82060C8E9003B42
:102EA000C8F82460FDF72CFD08B1FDF7FCFB0022FB
:102EB000C4F8708027201146C8F83840FDF75EFF3F
:102EC00027208AE6334A90427FF489AE8A46CDF8BD
:102ED00058A0C11468460091FDF7C0FF08B1FDF786
:102EE000E2FB2D48016841F020010160006800F01C
:102EF00020002990306840F00400306030680821DC
:102F0000C022564600F00400CDE926A7CDE92810DE
:102F1000224824A9CDE92428FDF7A2FD204F4FF037
:102F20002068204A4FF4403B38463A60C7E90186A2
:102F3000C7E903657E61BE61C7E9076B7E62FDF785
:102F4000DFFC08B1FDF7AFFBDFF854A067670AF1BB
:102F5000600ABC635046134B7833C0E90365CAF876
:102F60001460CAF818608AE80803CAE9076BCAF84F
:102F70002460FDF7C5FC08B1FDF795FB0022C4F8FD
:102F800070A047201146CAF83840FDF7F7FE4720E9
:102F900023E60000001401404438024000080240CB
:102FA0006C0C002028640240704770472DE9F843FC
:102FB0000446C06F984616460D46202802D00220CF
:102FC000BDE8F88395B18EB10021C4F884102120AA
:102FD000E067FDF773FE8146A068A4F85060A4F88E
:102FE00052602027B0F5805F02D003E00120E7E7C0
:102FF000206910B12E46002510E000260EE0802149
:10300000204601F083FEC0B9D6B116F8010B216845
:103010008862B4F85200401EA4F85200B4F852007E
:103020004B464FF00002CDF800800028E7D14FF06A
:103030004001204601F06AFE40B1E7670320BFE788
:1030400035F8020B2168C0F30800E1E7E7670020CC
:10305000B6E7000070B50446C06F202801D00220FA
:1030600070BD29B322B3206F0023E1642125A4F8A9
:103070005020A4F85220C4F88430E567D0B1154937
:10308000C163216F14480864216F1448C864206F1D
:10309000036513462068256F00F12802E16C28467D
:1030A000FDF7A0FC30B11021C4F884102020E067A7
:1030B000012070BD2168402008622068083050E877
:1030C000001F41F0800140E80012002AF5D10020E5
:1030D00070BD0000BD460008FD4600089745000889
:1030E000C36F202B01D00220704781B17AB1A0F8C4
:1030F00050200023A0F852208268C1642121C366B9
:10310000C0F88430C167B2F5805F02D003E00120CF
:103110007047016961B10749C166026852E8001F42
:1031200041F0800142E80013002BF6D100207047E7
:103130000149F1E7C14C0008714C00087047704725
:10314000FEE70000354808B5016841F480010160E0
:10315000016801F480010091016841F400110160EF
:1031600000680022114600F4001000900B20FDF7CB
:1031700005FE0B20FDF7F4FD00220C201146FDF7A3
:10318000FDFD0C20FDF7ECFD00220D201146FDF7A2
:10319000F5FD0D20FDF7E4FD00220E201146FDF7A0
:1031A000EDFD0E20FDF7DCFD00220F201146FDF79E
:1031B000E5FD0F20FDF7D4FD002210201146FDF79C
:1031C000DDFD1020FDF7CCFD002211201146FDF79A
:1031D000D5FD1120FDF7C4FD002239201146FDF771
:1031E000CDFD3920FDF7BCFD00223A201146FDF748
:1031F000C5FD3A20FDF7B4FD002245201146FDF73C
:10320000BDFD4520FDF7ACFD002246201146FDF72F
:10321000B5FDBDE808404620FDF7A2BD30380240AC
:103220002DE9F04F87B014216846FDF73BF8B84808
:10323000016841F010010160016801F01001059181
:10324000016841F480710160016801F480710591A9
:10325000016841F004010160016801F00401059179
:10326000016841F020010160016801F02001059131
:10327000016841F080010160016801F08001059161
:10328000016841F001010160016801F0010105914F
:10329000016841F002010160016801F0020105913D
:1032A000016841F040010160016801F040010591B1
:1032B000016841F00801016000680022DFF854A2B3
:1032C0004FF60C4100F0080005905046FDF7F1FC68
:1032D000914800224FF4F571FDF7EBFCDFF83CB2AA
:1032E000002242F205315846FDF7E3FC4FF6FF3667
:1032F0008B4800223146FDF7DCFC8A48002240F270
:103300007111FDF7D6FC44F2F027874800223946B8
:10331000FDF7CFFC48F23F28844800224146FDF7E4
:10332000C8FC012250464FF42071FDF7C2FC8048D2
:1033300000224FF21851FDF7BCFC7E4800224CF6EB
:103340001F01FDF7B6FC7B4801224FF48451FDF7C5
:10335000B0FC01227348D103FDF7ABFC4FF4406988
:10336000724801224946FDF7A4FC71480122202140
:10337000FDF79FFC01244FF68C6002256946CDE9DC
:1033800000040020CDE902055046FDF769FB4FF42B
:10339000B870009000206946CDE901045046FDF761
:1033A0005FFB4FF485706946CDE900040020029070
:1033B00003905948FDF754FB60036946CDE90004CA
:1033C0000020029003905846FDF74AFB40F211603E
:1033D000009000206946CDE901044F48FDF740FB0D
:1033E0000020009603956946CDE901404C48FDF761
:1033F00037FB40F205306946CDE900040020CDE9F5
:1034000002055846FDF72CFB48F271106946CDE9DC
:1034100000040020CDE902054248FDF721FB40F6FB
:103420000600009000206946CDE901043D48FDF703
:1034300017FB4AF20C10009000206946CDE9010408
:103440003948FDF70DFB0020009703956946CDE94B
:1034500001403548FDF704FB30200090002069460C
:10346000CDE901045846FDF7FBFA002040F60321A0
:103470000294CDE900102E486946FDF7F1FA0021CB
:10348000CDF8008003952948CDE901416946FDF753
:10349000E7FA00204FF23851CDE90014CDE90205DA
:1034A00023486946FDF7DCFA00214DF69F0003959D
:1034B0000090CDE901411F486946FDF7D1FAC020CF
:1034C00000218DE8130019486946FDF7C9FA01A8E3
:1034D000CDF80090112180E8320014486946FDF7CC
:1034E000BFFA002120030A468DE807000F4869460D
:1034F000FDF7B6FA00210395E02000900648CDE9DB
:1035000001416946FDF7ACFA07B0BDE8F08F000055
:103510003038024000100240002002400008024003
:103520000014024000000240001C0240001802404B
:1035300000040240000C024070B511484FF4E063F3
:103540000E4D00214FF482746A15C0E90213016127
:103550000723C0E90054C0E90512C16108240162D3
:103560004162C0E90A13C0E90C14FEF7CBF9002848
:1035700003D0BDE87040FDF796B870BD003800403C
:10358000AC04002030B587B01748002440F2E73380
:10359000D72200944FF08041019480250294039437
:1035A00004940594069480E816008561C0E903340C
:1035B000FEF7A0FD08B1FDF776F84FF480500090BB
:1035C00009486946FEF73EFE08B1FDF76CF806486B
:1035D00004A904940694FEF73BFD002801D0FDF7F2
:1035E00062F807B030BD00001005002010B588B0AB
:1035F00017480024154945F25F4240F2E733009432
:1036000001940294039404940594069480E81600AF
:10361000C0E903348461FEF76DFD08B1FDF743F89E
:103620004FF4805000900A486946FEF70BFE08B13F
:10363000FDF739F8064804A904940694FEF708FD3E
:10364000002801D0FDF72FF808B010BD000400409D
:103650005C0500200D48002110B50B4C0C224FF4E6
:1036600016530460C0E90131C160C0E904128161F0
:10367000C16101624162FFF7AFF9002803D0BDE8E4
:103680001040FDF710B810BD004C0040DC050020D4
:103690000D48002110B50B4C0C224FF4165304605A
:1036A000C0E90131C160C0E904128161C1610162F8
:1036B0004162FFF791F9002803D0BDE81040FCF704
:1036C000F2BF10BD007C0040640600200D480021C0
:1036D00010B50B4C0C224FF416530460C0E90131B5
:1036E000C160C0E904128161C16101624162FFF7FA
:1036F00073F9002803D0BDE81040FCF7D4BF10BD1B
:1037000000100140EC0600201348002110B5114CB8
:103710000C224FF416530460C0E90131C160C0E9C6
:1037200004128161C16101624162FFF755F908B17C
:10373000FCF7B9FF4FF47A74204600F0A1FA07486D
:1037400000224FF48071FDF7B4FA2046BDE8104026
:1037500000F096BA004400407407002000040240C4
:103760000D48002110B50B4C0C224FF41653046089
:10377000C0E90131C160C0E904128161C161016227
:103780004162FFF729F9002803D0BDE81040FCF79B
:103790008ABF10BD00480040FC07002013480021EC
:1037A00010B5114C0C224FF416530460C0E90131DE
:1037B000C160C0E904128161C16101624162FFF729
:1037C0000BF908B1FCF76FFF4FF47A74204600F054
:1037D00057FA074800220221FDF76BFA2046BDE8A0
:1037E000104000F04DBA0000001401408408002091
:1037F00000200240FEE7000070B5094DFF2213468D
:1038000005F5807606E000BF10F8014B54402A5DB4
:103810005A40335D491EF7D243EA022070BD0000D2
:10382000567800082DE9F05F29B101290AD0022954
:1038300004D0032908D00122002607E00122002637
:10384000154604E0012200E0002201260025C94CB3
:10385000F0B301284ED0DFF82093022857D0032878
:1038600063D0042876D005287CD0DFF810A3062882
:103870006CD007286BD0C24F082869D0092868D0BF
:10388000DFF800830A28DFF800B379D00B2878D05E
:103890000C2877D00D2876D00E2875D00F2874D03C
:1038A00010284FF4007771D0112870D012286FD0F3
:1038B00013286ED014286DD015286CD016286BD024
:1038C00017286AD104215046FDF7F3F9324600E08B
:1038D00008E0AE4C39462046FDF7EBF94FF4807115
:1038E0002A4612E004212046FDF7E3F90121324681
:1038F000204640E008212046FDF7DBF90221324650
:103900002046FDF7D6F920212A4620462BE14FF428
:1039100080412046FDF7CDF94FF4805132462046D4
:10392000FDF7C7F901212A460CE04FF4004120467B
:10393000FDF7BFF94FF4005132462046FDF7B9F9C3
:1039400002212A4648460EE104E00BE026E032E080
:103950003FE04DE08D480121FDF7ABF904213246EF
:103960004846B4E04FF400414C464846FDF7A1F903
:10397000874840213246FDF79CF910212A46C4E7CA
:1039800046E053E05FE06DE079E081E08CE095E0B7
:10399000A3E0B1E0BFE0CBE0D7E0E8E07C488021E5
:1039A000FDF787F9202132464846FDF782F94FF4AA
:1039B00080412A4638E0012154465046FDF779F906
:1039C0004FF4004132462046FDF773F902212A46A2
:1039D0009BE74FF400613846FDF76BF94FF48061C7
:1039E00032463846FDF765F94FF480512A460DE01E
:1039F0004FF480413846FDF75CF94FF400513246F0
:103A00003846FDF756F94FF400412A463846AAE0F9
:103A10004FF400414046FDF74CF92021324658460C
:103A2000FDF747F980212A4650469CE04FF40051AB
:103A30003846FDF73EF9082132465846FDF739F978
:103A400080212A46E2E74FF480515C465846FDF754
:103A500030F9102132462046FDF72BF94B4804215E
:103A60002A4680E010214046FDF723F90421324622
:103A70003846FDF71EF9474880212A4673E0402169
:103A800044464046FDF715F942482021324623E7D7
:103A900040484021FDF70DF9082132463846FDF730
:103AA00008F908212A46BFE708214C464846FDF799
:103AB00000F938484FF48071324641E034483946C5
:103AC000FDF7F7F84FF48051324654465046FDF763
:103AD000F0F84FF400612A4617E74FF480415C4646
:103AE0005846FDF7E6F8102132465046FDF7E1F85A
:103AF0004FF400412A4608E7254C20212046FDF7D7
:103B0000D8F8102132462046FDF7D3F84FF4005183
:103B10002A46584627E01D484FF40051FDF7C9F8E2
:103B2000012132464046FDF7C4F840212A46ECE622
:103B30004FF480712046FDF7BCF8802132462046C4
:103B4000FDF7B7F82A463946DFE64FF4806158465C
:103B5000FDF7AFF8202132464046FDF7AAF80C48A1
:103B60004FF480412A46BDE8F05FFDF7A2B8BDE8FA
:103B7000F09F00000014024000180240000C0240B8
:103B80000010024000000240000402400008024011
:103B9000001C024000200240FEE700F00F00092850
:103BA00001D8303070473730704770472DE9F04703
:103BB0004FF47A750E4600240746284600F060F858
:103BC000DFF84890012202214846FDF772F82846A6
:103BD00000F056F84FF6FF780D4839194346012298
:103BE000FFF7E4F9641CB442F6D340F6FF7000F02E
:103BF00047F8284600F044F8002248460221FDF725
:103C000058F82846BDE8F04700F03AB800200240D6
:103C1000840800202DE9F0474FF47A750E46002401
:103C20000746284600F02CF8DFF84CA04FF48079C6
:103C3000012249465046FDF73CF8284600F020F89E
:103C40004FF6FF780D48391943460122FFF7AEF9C8
:103C5000641CB442F6D340F6FF7000F011F8284619
:103C600000F00EF8002249465046FDF722F828469B
:103C7000BDE8F04700F004B80004024074070020DB
:103C800001B5009801E0401E00900028FBD108BD5E
:103C90002DE9F05F7A4C0025DFF8E8A108215046B5
:103CA0002572FDF701F818B9207A40F00100207262
:103CB000754E01213046FCF7F7FF18B9207A40F025
:103CC00002002072714F10213846FCF7EDFF18B941
:103CD000207A40F0040020726D484021FCF7E4FF98
:103CE00018B9207A40F008002072DFF8A88140213E
:103CF0004046FCF7D9FF18B9207A40F01000207236
:103D00004FF400613046FCF7CFFF18B9207A40F03D
:103D100020002072DFF8809101214846FCF7C4FFA3
:103D200018B9207A40F04000207220213846FCF774
:103D3000BBFF18B9207A40F080002072574802215A
:103D40006572FCF7B1FF18B9607A40F0010060724B
:103D500052480421FCF7A8FF18B9607A40F002002D
:103D600060724FF4807147464046FCF79DFF18B9DA
:103D7000607A40F0040060724FF40071B346304640
:103D8000FCF792FF18B9607A40F0080060724FF4B7
:103D90008061C8464846FCF787FF18B9607A40F052
:103DA00010006072042156465046FCF77DFF18B99A
:103DB000607A40F0200060724FF480713046FCF76A
:103DC00073FF18B9607A40F04000607233484FF4D6
:103DD0000061FCF769FF18B9607A40F080006072FA
:103DE00002215846A572FCF75FFF18B9A07A40F08F
:103DF0000100A07220213846FCF756FF18B9A07ABE
:103E000040F00200A0724FF400513046FCF74CFF26
:103E100018B9A07A40F00400A0724FF40041304677
:103E2000FCF742FF18B9A07A40F00800A0721021F8
:103E30003846FCF739FF18B9A07A40F01000A0729C
:103E4000102145464046FCF72FFF18B9A07A40F0F4
:103E50002000A0724FF400712846FCF725FF18B926
:103E6000A07A40F04000A07209488021FCF71CFFB6
:103E7000002803D1A07A40F08000A072BDE8F09F36
:103E800084020020001C024000040240000802409E
:103E900000180240001002400020024000000240D2
:103EA00018220146054810B5FFF71AF903480068C3
:103EB000C169C9434906FBD410BD00006406002057
:103EC000024A1044C1701046FFF7EABF55000020B7
:103ED0000021084610B5FFF7F3FF00210120FFF78E
:103EE000EFFF00210220FFF7EBFF78210320FFF70F
:103EF000E7FF78210420FFF7E3FF00210520FFF70B
:103F0000DFFF3C210620FFF7DBFF3C210720FFF706
:103F1000D7FF5A210820FFF7D3FF3C21BDE810400E
:103F20000920FFF7CDBF00002DE9F84304464068A3
:103F30004FF482761546B04289464FF400474FF45D
:103F4000806815D1A068B84201D0404507D12068EB
:103F5000016821F0400101606068B04208D1002290
:103F60004B4680212046009500F0E4F820BB12E08B
:103F700016484FF47A71164A0068B0FBF2F04843D5
:103F8000009040B1401E009020688068C043000649
:103F900001D40098F5E76068B04214D1A068B84237
:103FA00001D040450FD100224B464FF4C06120465E
:103FB000009500F04FF830B1206E40F020002066F0
:103FC0000320BDE8F8830020FBE7000098000020F4
:103FD00000366E01F8B515460E4604460B464FF402
:103FE000C0510092002200F035F840BB17484FF452
:103FF0007A71174A0068B0FBF2F04843009060689D
:10400000B0F5827F08D100223346802120460095FA
:1040100000F090F898B908E0009830B1401E009088
:1040200020688068C0430006F6D5002233464FF46E
:10403000C0612046009500F00DF8002804D0206EE5
:1040400040F0200020660320F8BD0000980000200A
:1040500000366E012DE9FE4F984617460E4604467F
:104060000C9D4FF0000A8DF804A0FCF727FE411BC1
:10407000A8EB0105FCF722FE81462D484FF4C06BEA
:1040800001682068C1EBC1010C30029001EB810096
:10409000000D684315E05E4506D12FB902980078FF
:1040A0008DF804009DF80400B8F1FF3F0AD0FCF73A
:1040B00005FEA0EB0900A8420CD25DB1009898B3B0
:1040C000401E0090206880683040B842E3D1002054
:1040D000BDE8FE8F2068416821F0E0014160606822
:1040E000B0F5827F0BD1A068B0F5004F02D0B0F5DB
:1040F000806F04D12068016821F040010160A06A4E
:10410000B0F5005F09D12068016821F40051016019
:104110002068016841F400510160012184F85D10BC
:10412000032084F85CA0D3E7FFE70025CAE700007E
:10413000980000202DE9F8431E4691468846044623
:10414000089DFCF7BBFD401B351AFCF7B7FD074681
:1041500026480068C0F3CB3068430AE0701C09D0E1
:10416000FCF7ACFDC01BA8420FD275B10098B8B3E4
:10417000401E00902068816838EA010033D0002199
:104180004945EBD10020BDE8F8832068416821F063
:10419000E00141606068B0F5827F0BD1A068B0F5A6
:1041A000004F02D0B0F5806F04D12068016821F083
:1041B00040010160A06AB0F5005F09D12068016884
:1041C00021F4005101602068016841F40051016050
:1041D000012184F85D10002084F85C000320D2E700
:1041E000FFE70025C6E70121CAE70000980000208C
:1041F0007047FCF769BD000030B593B034216846C4
:10420000FCF750F814210DA8FCF74CF8FCF71EFE43
:104210002048016841F080510160006800F0805042
:1042200012901D48016841F440410160006800257A
:104230000DF1200C022400940822D823CDE9064574
:1042400000F4404012908CE81C0010210B940120D7
:104250000C94CDE903016846FDF788F908B172B600
:10426000FEE7FCF7BDFD08B172B6FEE74FF48052E1
:104270004FF4A0510F20CDE910120DAA072182E8BA
:1042800031000DA8FDF788F8002801D072B6FEE7CE
:1042900013B030BD40380240007000400248016851
:1042A00041F470010160704788ED00E00148FEF7BD
:1042B0003AB80000100500200148FEF734B80000AD
:1042C0005C050020F0B5294B4FF0804E284D026868
:1042D0009842284E284F294C09D0704507D0A84253
:1042E00005D0B04203D0B84201D0A04205D1D1F8E8
:1042F00004C022F070024CEA020298421BD07045C2
:1043000019D0A84217D0B04215D0B84213D0A0425D
:1043100011D01B4DA8420ED01A4DA8420BD01A4DF9
:10432000A84208D0194DA84205D0194DA84202D084
:10433000184DA84203D1CD6822F440722A438E68FA
:104340004D6922F08002C6620E682A439842866256
:1043500001D0A04201D1096901630368012143F042
:104360000403036041610260F0BD000000000140F1
:104370000004004000080040000C00400004014020
:104380000040014000440140004801400018004046
:10439000001C00400020004042EA032283680A43D8
:1043A00023F47F410A4382607047826822F07002E2
:1043B0000A4342F007018160704710B5036A046A3E
:1043C00023F00A0324F00104046284690B4324F0FF
:1043D000F00141EA02118161036210BD10B5036A68
:1043E000046A23F0A00324F010040462846943EA01
:1043F000011124F4704343EA02328261016210BD6C
:104400000148FEF787B90000DC0500200148FEF7EF
:1044100081B900006406002090F82410090706D531
:104420000168436B4A6822F400421A434A6090F8DC
:104430002410C90706D00168836A4A6822F4003252
:104440001A434A6090F82410890706D50168C36AA8
:104450004A6822F480321A434A6090F824104907CF
:1044600006D50168036B4A6822F480221A434A6029
:1044700090F82410C90606D50168836B8A6822F477
:1044800080521A438A6090F82410890606D5016884
:10449000C36B8A6822F400521A438A6090F8241091
:1044A000490611D50168036C4A6822F480121A4348
:1044B0004A60016CB1F5801F06D10168436C4A68FF
:1044C00022F4C0021A434A6090F82410090606D567
:1044D0000168826C486820F40020104348607047EF
:1044E0002DE9F84300250446C0F88450FCF7E6FBAC
:1044F0008046206820266FF07E470068000712D5AE
:104500000022434631042046009700F0FFFB50B1E3
:10451000216851E8000F20F0800041E80002002AE5
:10452000F6D1E66721E020680068400722D5002226
:1045300043464FF480012046009700F0E7FBC8B1E6
:10454000206850E8001F21F4907140E80012002A12
:10455000F6D12068083050E8001F21F0010140E842
:104560000012002AF5D1C4F88060032084F8785046
:10457000BDE8F883E667C4F88060256665660020BC
:1045800084F87850F4E710B5806B0021A0F85A1039
:10459000FEF7BFF810BD70B5846B00252168E06F91
:1045A000D4F880608968090606D5212804D1A4F8CA
:1045B0005250204600F0CDF820688068400606D5AD
:1045C000222E04D1A4F85A50204600F09CF8D4F8CA
:1045D000840040F01000C4F884002046FEF799F8EB
:1045E00070BD70B5C36900220146806BB3F5807F52
:1045F0002DD0A0F85A20036853E8004F24F48074AB
:1046000043E80045002DF6D10368083353E8004F16
:1046100024F0010443E80045002DF5D10368083378
:1046200053E8004F24F0400443E80045002DF5D145
:104630002023C0F88030036E012B08D1046854E8B1
:10464000003F23F0100344E80035002DF6D1426608
:10465000036E012B02D0FEF7A7FC70BDA0F85A2014
:104660000968B0F85820496889B28A4201D9A0F88F
:104670005A10B0F85A10511A89B2FDF7EBFF70BD0D
:1046800010B50246806B01214166016E012902D0FE
:10469000FEF78BFC10BDB0F858104B08A0F85A304C
:1046A0001268526892B2914201D3A0F85A20B0F831
:1046B0005A20891A89B2FDF7CDFF10BD10B5C16926
:1046C000806BB1F5807F16D00021A0F852100168F0
:1046D000083151E8002F22F0800241E80023002B2E
:1046E000F5D1026852E8001F41F0400142E8001392
:1046F000002BF6D110BDFEF721FD10BD10B5806B6B
:10470000FEF71DFD10BD016851E8002F22F49072E4
:1047100041E80023002BF6D10168083151E8002F51
:1047200022F0010241E80023002BF5D1016E01299E
:1047300008D1026852E8001F21F0100142E800137E
:10474000002BF6D100212022C0F88020016681666E
:104750007047026852E8001F21F0C00142E80013D0
:10476000002BF6D12021C167704710B5D0F880101A
:10477000B0F85C202229016804D0886940F0080064
:10478000886110BD496A436D11401980416D891CD3
:104790004165B0F85A10491EA0F85A10B0F85A10E6
:1047A0000029EED1026852E8001F21F4907142E81E
:1047B0000013002BF6D10168083151E8002F22F0D8
:1047C000010241E80023002BF5D100212022C0F88E
:1047D00080208166416602685268120208D503682B
:1047E00053E8002F22F0806243E80024002CF6D129
:1047F000026E012A02D0FEF7D7FB10BD01660268E7
:1048000052E8001F21F0100142E80013002BF6D1FE
:104810000168CA69D243D20601D410220A62B0F8F4
:104820005810FDF717FF10BD10B5D0F88010B0F884
:104830005C202229016804D0886940F00800886162
:1048400010BD496A436D11401970416D491C4165A5
:10485000B0F85A10491EA0F85A10B0F85A100029A2
:10486000EED1026852E8001F21F4907142E8001373
:10487000002BF6D10168083151E8002F22F0010227
:1048800041E80023002BF5D100212022C0F8802030
:104890008166416602685268120208D5036853E8CF
:1048A000002F22F0806243E80024002CF6D1026E33
:1048B000012A02D0FEF778FB10BD0166026852E8BB
:1048C000001F21F0100142E80013002BF6D101680F
:1048D000CA69D243D20601D410220A62B0F8581035
:1048E000FDF7B8FE10BD00002DE9F0410446036855
:1048F000C2698168D4E90450DFF8F0C17C4E2943D5
:104900001F68002510437B4A014307EA0C070F4349
:104910001F604FF400402168E7684B6823F4405360
:104920003B434B602768A369216AD7F808C0194345
:104930002CF430630B43BB602168B1420AD111688B
:1049400011F0030152D001297CD0022971D0032932
:104950006ED184E0684B99420AD1116811F00C01C4
:1049600067D0042965D0082975D00C2960D176E07C
:10497000624B99420AD1116811F0300159D01029C7
:104980006BD0202967D0302952D168E05C4B994226
:104990000AD1116811F0C0014BD040295DD08029A7
:1049A00059D0C02944D15AE0564B99420DD11168D3
:1049B00011F440713DD0B1F5807F4ED0B1F5007F4C
:1049C00049D0B1F5407F33D149E04F4B99420FD1E7
:1049D000116811F4406109D0B1F5806F3DD0B1F597
:1049E000006F38D0B1F5406F22D138E0012120E0CE
:1049F000464B99420DD1116811F4405119D0B1F5CF
:104A0000805F2AD0B1F5005F25D0B1F5405F0FD1AE
:104A100025E03F4B99420BD1116811F4404108D079
:104A2000B1F5804F19D0814215D0B1F5404F16D065
:104A30001021E369374A4FF6EF7683422ED10929D8
:104A400049D201E009E006E0DFE801F00B0E114574
:104A50001345454516000221EBE70421E9E708214B
:104A6000E7E7FCF731FD06E0FCF73EFD03E010460A
:104A700002E0FCF749FD78B36168400000EB5100AB
:104A8000B0FBF1F0A0F11001B14224D84FF6F07361
:104A90002168C0F342021840104320E009291AD2CD
:104AA000DFE801F005080B190D1919191000FCF7C2
:104AB0000BFD06E0FCF718FD03E0104602E0FCF7F2
:104AC00023FD48B1616800EB5100B0FBF1F0A0F1AB
:104AD0001001B14201D9012502E0216880B2C8600D
:104AE0000020A066E0662846BDE8F081F369FFEF8C
:104AF000001001409038024000440040004800404F
:104B0000004C00400050004000140140007800407C
:104B1000007C00400024F40070B50446406F002380
:104B200022256165A4F85820C4F88430C4F8805068
:104B3000D0B11E49C163616F1D480864616F1D4893
:104B4000C864606F03651346656D2168606F2A460F
:104B50002431FBF747FF38B11021C4F8841020201E
:104B6000C4F88000012070BD206940B1216851E87F
:104B7000000F40F4807041E80002002AF6D120685E
:104B8000083050E8001F41F0010140E80012002AFF
:104B9000F5D12068083050E8001F41F0400140E89E
:104BA0000012002AF5D1002070BD0000E345000886
:104BB000814600089745000830B5836800244165A8
:104BC0004FF48055A0F85820AB42A0F85A204FF07F
:104BD000FF01846604D1026972BB40F2FF112BE031
:104BE0004FF07F0233B3B3F1805F28D0A0F85C4070
:104BF0002221C0F88440C0F880100168083151E8D3
:104C0000002F42F0010241E80023002BF5D181681A
:104C1000A94201D10169C9B1134902698166BAB1DA
:104C2000016851E8002F42F4907241E80023002B04
:104C3000F6D116E0036933B9A0F85C10D8E7016932
:104C400009B13F21F8E7A0F85C20D1E70749816668
:104C5000026852E8001F41F0200142E80013002BD7
:104C6000F6D1002030BD0000294800086B4700083D
:104C7000C16F212910D1B0F8521071B1C16C026816
:104C80000988C1F308019162C16C891CC164B0F844
:104C90005210491EA0F852107047026852E8001FD7
:104CA00021F0800142E80013002BF6D1026852E89F
:104CB000001F41F0400142E80013002BF6D170477D
:104CC000C16F21290ED1B0F8521061B1C16C0268D8
:104CD00009789162C16C491CC164B0F85210491E38
:104CE000A0F852107047026852E8001F21F08001BE
:104CF00042E80013002BF6D1026852E8001F41F091
:104D0000400142E80013002BF6D170472DE9F0472F
:104D1000994617460D460446089E4FF0000833E0BA
:104D2000701C31D0FBF7CAFFA0EB0900B04218D8C5
:104D3000BEB120680168490726D5802D24D0402DBA
:104D400022D0C169C94309070DD408250562204650
:104D5000FFF7D9FCC4F88450012084F87880BDE8BE
:104D6000F0870320FBE7C069C04300050CD421682D
:104D70004FF4006008622046FFF7C5FC2021C4F80C
:104D8000841084F87880ECE72068C06935EA000078
:104D900004D00020B842C3D00020E0E70120F9E7AA
:104DA0000148FDF7B7BC0000EC0600200148FDF704
:104DB000B1BC0000740700200148FDF7ABBC000047
:104DC000FC0700200148FDF7A5BC00008408002076
:104DD000FEE70000F8B5144C0546E06880476069BE
:104DE0008047616AC5F30740C5F3072699B1A26AF7
:104DF0008AB18DF8000003218DF8016068468DF8B6
:104E000002509047E06980470546A06980472069C5
:104E100080472846F8BD216A8847216A304688477E
:104E2000216AE8B28847EDE7B40000202DE9F84395
:104E30001A4C054617468846E068804760698047F7
:104E4000616AC5F30740C5F30726A1B1A26A92B112
:104E50008DF8000003218DF8016068468DF802503E
:104E60009047626A394640469047A069804720696A
:104E70008047BDE8F883216A8847216A3046884721
:104E8000216AE8B28847002505E0E06980476A1C8E
:104E900008F8050095B2BD42F7D3E6E7B40000205C
:104EA000F8B5164C05460E46E068804760698047B5
:104EB000A26A45F004058AB1280C8DF80000290A81
:104EC0008DF8011004218DF8025068468DF80360BA
:104ED0009047A069804720698047F8BD216AC5F3E3
:104EE00007408847216AC5F307208847216AE8B24E
:104EF0008847216A30468847EBE70000B40000206D
:104F0000F8B51A4C054616460F46E06880476069BA
:104F10008047A26A45F004059AB1280C8DF800007C
:104F2000290A8DF80110032168468DF80250904738
:104F3000A26A314638469047A06980472069804779
:104F4000F8BD216AC5F307408847216AC5F30720E9
:104F50008847216AE8B28847002504E0216A785D25
:104F600088476D1CADB2B542F8D3E5E7B400002028
:104F700004480022782142718171C1710272FEF7EA
:104F80008FBF0000550000200448782200214271A4
:104F90008171C1710272FEF783BF000055000020CD
:104FA0000FB4054B10B503A9044A029800F028F885
:104FB00010BC5DF814FB000095570008500100205C
:104FC000090700284FEA116104DB00F1E02080F8B6
:104FD0000014704700F00F0000F1E02080F8141D6D
:104FE000704702E008C8121F08C1002AFAD17047B2
:104FF0007047002001E001C1121F002AFBD1704759
:105000002DE9FF4F8DB00F460546002606E0252806
:105010000BD0DDE90F1290476D1C761C2878002814
:10502000F5D111B03046BDE8F08F0024A246A1466C
:105030000122E94900E0044315F8013F203B02FA50
:1050400003F00842F7D128782A2810D06FF02F02F9
:105050002878A0F13001092914D80AEB8A0102EB63
:10506000410144F0020400EB010A6D1CF0E701CF9E
:105070005FEA000A03D544F40054CAF1000A44F080
:1050800002046D1C28782E2817D115F8010F44F062
:1050900004042A280ED06FF02F022878A0F13001E6
:1050A00009290AD809EB890102EB410100EB01094A
:1050B0006D1CF2E757F8049B6D1C28786C280FD004
:1050C00006DC4C2817D068280DD06A2814D104E0DB
:1050D000742810D07A280FD10DE044F400140AE0AF
:1050E00044F4801401E044F440146978814202D110
:1050F00004F580146D1C6D1C28786E281ED00CDC05
:10510000632830D004DC00288BD0582811D19FE0D0
:10511000642867D069280CD164E073282DD004DCA2
:105120006F2872D0702804D194E075286ED078284A
:105130006DD0DDE90F129047761C4BE1C4F30250AD
:10514000022806D0032809D0042801CF09D0066020
:1051500040E101CFF117C0E900613BE101CF0680DA
:1051600038E1067036E117F8040B8DF800000020D6
:105170008DF80100EB46012003E057F804BB4FF027
:10518000FF3061074FF0000102D40DE008F101018A
:10519000884649450FDA8045F8DB1BF808100029DE
:1051A000F4D108E008F1010188468142FADB1BF8DE
:1051B00008100029F6D1DDE90F23AAEB080081468B
:1051C000214600F031F9304400EB080604E0DDE947
:1051D0000F121BF8010B9047B8F10108F7D22146D6
:1051E0004846F2E00A21C4F302524FF0000B089146
:1051F000022A04D001CFC117032A09D00AE0FF1DFB
:1052000027F00707F7E8020108E02CE01EE01FE0A6
:1052100000B2C117042A01D140B2C117021E71F1B8
:10522000000206DA0023D0EB030063EB01012D221C
:1052300002E0220504D52B228DF82420012203E070
:10524000E20701D02022F7E7904653E00A210BE065
:10525000102109E010214FF0000B44F004044FF03E
:105260000809089103E008214FF0000B0891C4F3EE
:105270000252022A04D001CF0021032A06D006E000
:10528000FF1D27F00707F7E8020103E080B2042AB8
:1052900000D1C0B24FF0000822072BD52A78702A1F
:1052A00007D0DDF820C08CF0100C5CEA0B0C05D0A8
:1052B0000EE040228DF82420012208E050EA01038C
:1052C00006D030238DF824308DF825200222904618
:1052D000089B83F0080353EA0B030BD150EA010249
:1052E00001D1620706D530228DF824204FF0010845
:1052F000A9F101092A78582A04D038A20B9208AAE9
:105300000A920BE03AA2F9E75B46089AFAF792FF95
:105310000B9B9B5C0A9A521E0A92137050EA010280
:10532000F2D10A98ADEB000000F1200B600702D526
:1053300024F4803401E04FF00109D94502DDA9EBE6
:105340000B0000E0002000EB0B0141440890AAEBA9
:10535000010AE00306D4DDE90F232146504600F0A0
:1053600063F806444FF0000908E009A911F80900A4
:10537000DDE90F12904709F10109761CC145F4DB04
:10538000E0030CD5DDE90F232146504600F04CF830
:10539000064404E0DDE90F1230209047761C08999E
:1053A000481E08900029F5DC08E00A980A99007860
:1053B000491C0A91DDE90F129047761CBBF10001F0
:1053C000ABF1010BF1DC21465046DDE90F2300F083
:1053D00019F806446D1C21E60928010030313233EA
:1053E0003435363738396162636465660000000021
:1053F000303132333435363738394142434445460B
:10540000000000002DE9F041044600251E46174625
:10541000880404D405E039462020B0476D1C641E82
:10542000F9D52846BDE8F0812DE9F0410446002574
:105430001E469046C80301D5302700E02027880487
:1054400004D505E041463846B0476D1C641EF9D5C9
:105450002846BDE8F0810000F8B54FF4D856304634
:10546000FFF7B8FC032105463046FFF719FD0E4B48
:1054700041F2883000901122DC1F0CA1A07801F0CD
:105480003FFC074629463046FFF70AFD0D3708D096
:1054900001F074F9E069E169091A0229FBD30020DF
:1054A000F8BD0120F8BD0000E70000204348454357
:1054B0004B5F49505F434F4E464C494354000000F8
:1054C00070B51A4C00260125204694F9011090F978
:1054D0000000022917DAD4E90721914223D20128DA
:1054E00004D0022805D0042805D102E001F0D0F94B
:1054F00001E001F0BBFAE661E0690A302062607801
:10550000401C60700FE0012804D0022805D0042858
:1055100007D102E00025267003E001F0B9F901206F
:10552000207001F093F8284670BD0000E0000020D4
:1055300070B50828044602D94FF0FF3070BD4FF413
:10554000847000EB441010210546FFF7A9FC2846A3
:10555000FFF740FC0028FAD14FF402701F2100EB46
:105560004410FFF79DFC0D4801210022A1404FF49B
:105570004275438805EB44158B43438083888B43F6
:105580008380074820F814200448801D02552846CF
:10559000FFF720FC0028FAD1012070BD9C000020FC
:1055A0002C0D00202DE9F0410C46024600214F1E33
:1055B0000846102A4FF498554FF4A05663D2DFE8FE
:1055C00002F0080B17131A1E222C3645484C59506E
:1055D000555C02F030F84DE014B104F108012046AA
:1055E000BDE8F04101F042BF208801F0CBFE41E070
:1055F00001F0F2FE05E0208801F0C2FF3AE001F080
:10560000FAFE208036E02088010A2846FFF748FC91
:1056100021783046FFF744FC2CE03046FFF7DAFBF8
:1056200006462846FFF7D6FB06EB0020E9E71748B9
:1056300082782270C27862700279A2704279E27038
:1056400082792271C0796071A17113E002F0A1F832
:1056500010E0204602F0B2F80CE0204602F05AF8C2
:1056600008E02078BDE8F04102F0CDB802F084F8FF
:1056700005E020700020BDE8F08102F072F8C0B2B1
:1056800041B2491CF5D13846F5E70000B4000020CE
:105690000A4904224FF4706010B5FFF731FC074946
:1056A00004224FF4A0600831FFF72AFC03490422CA
:1056B000BDE81040091D9001FFF722BCE700002063
:1056C0008021002010B5FFF7EBFB0020FFF782FBE5
:1056D000BDE81040024906224FF41060FFF710BCED
:1056E000200100208021002010B5FFF7D9FB002009
:1056F000FFF770FBFFF7CCFFBDE810400249062220
:105700004FF41060FFF7FCBB2001002070B5054688
:1057100014464FF442700E4600EB4510FFF75AFB5B
:1057200050B1132810D0172813D01C2830D1284688
:10573000BDE87040FFF7FCBE22462846BDE8704039
:105740002023012101F09CBB2846BDE8704000F0F9
:10575000D1B84FF4027000EB45100446FFF73AFB56
:10576000C00703D001212046FFF79AFB284600F02E
:1057700075F804000CD002463146284600F0AAFD18
:105780000020214630553046BDE8704000F04ABC4C
:1057900070BD000013B5044801224FF6FF7369463F
:1057A000FDF704FC00981CBDEC06002010B5002895
:1057B00021D0114B0022001F196803E0814203D859
:1057C0000A4649680029F9D152B11368841A9C42EB
:1057D00004D1006818441060104602E0506000E0F8
:1057E000186039B102680B1A934203D10B681A444E
:1057F00002604968416010BD5401002004490A78E4
:1058000002704A7842708A788270C978C170704795
:10581000F300002004490A7802704A7842708A78BE
:105820008270C978C1707047EB00002004490A7883
:1058300002704A7842708A788270C978C170704765
:10584000E700002004490A7802704A7842708A789A
:105850008270C978C1707047EF0000202DE9F041D7
:1058600042F2086242F20871002602EB401501EB99
:1058700040142846FFF7AEFA07462046FFF7AAFA7B
:1058800000EB072007043F0C09D02846FFF7A2FAD7
:1058900006462046FFF79EFA00EB062086B2BE427F
:1058A000E7D13046BDE8F0812DE9F04142F208022F
:1058B00042F20811002602EB401501EB4014284685
:1058C000FFF788FA07462046FFF784FA00EB072027
:1058D00007043F0C09D02846FFF77CFA064620460D
:1058E000FFF778FA00EB062086B2BE42E7D13046D9
:1058F000BDE8F08170B50828044602D94FF0FF30AA
:1059000070BD60010830FFF765FA00F00F00012854
:1059100002D06FF0040070BD4FF4427000EB4410F1
:105920000546FFF757FA132802D06FF0020070BD4A
:105930004FF4847000EB441002210646FFF7B0FAE2
:105940003046FFF747FA0028FAD12846FFF742FA17
:10595000142805D02046FFF7EBFD6FF0030070BD63
:10596000012070BDFBF7B8F9FEF746FCFDF758FCC7
:10597000FDF7E8FBFDF712FFFDF7A8FEFDF788FE37
:10598000FDF7C2FEFDF766FEFDF7EAFEFDF7FAFD44
:10599000FDF7D2FDFDF72AFEFEF79AFA1E48FCF746
:1059A0000BFC1E490622FF2000240A7048700220CA
:1059B0000C54401C2628FBDB1849242218482439A3
:1059C000FCF720FE154950221648C439FCF71AFE90
:1059D0001249502214487439FCF714FE134932223C
:1059E0001348FCF7EAFD1149322212483231FCF724
:1059F00009FE11480068016821F00801016001F00A
:105A0000CDFA0F480D4D0470002004492A88263134
:105A1000FFF77CFEF8E700005C0500208402002010
:105A2000EC06002084080020740700205C010020A0
:105A3000FC070020DC050020AC0B00204601002004
:105A40006D0000207CB5062269464FF41060FFF718
:105A5000EDF9304A012306240020D16B0B704B7006
:105A60008C708024C870936B1B0E0B71936B1B0C96
:105A70004B71138F1B0A8B7192F83830CB71D36B3B
:105A800018819C72D87202F14003D16B087348737D
:105A90008873C873087448748874C8740875487526
:105AA0008875C875087648768876C8761C780C772D
:105AB0005C784C779C788C77DC78CC771C7981F893
:105AC00020405C79062381F82140CD185C1CE3B2AC
:105AD000102B2877F9D3D36B00214C1C5D18E1B251
